:020000040800F2
:10C0000080390020D5C100082DC4000829C40008CB
:10C01000E1C10008E3C10008E5C10008000000001C
:10C02000000000000000000000000000E7C1000860
:10C03000E9C1000800000000EBC1000831C400089D
:10C04000EFC10008EFC10008EFC10008EFC1000810
:10C05000EFC10008EFC10008BDC30008EFC1000830
:10C06000EFC10008EFC10008EFC10008EFC10008F0
:10C07000EFC10008EFC10008EFC10008EFC10008E0
:10C08000EFC10008EFC10008EFC10008EFC10008D0
:10C09000EFC100085DC30008EFC100080DC400082F
:10C0A000EFC10008EFC10008EFC10008EFC10008B0
:10C0B000EFC10008EFC10008EFC10008EFC10008A0
:10C0C000EFC10008EFC10008EFC10008EFC1000890
:10C0D000EFC100084DC50008EFC10008EFC100081E
:10C0E000EFC10008EFC10008EFC10008EFC1000870
:10C0F000EFC10008EFC10008EFC10008EFC1000860
:10C10000EFC10008EFC10008EFC10008EFC100084F
:10C11000EFC10008EFC10008EFC10008EFC100083F
:10C12000EFC10008EFC10008EFC10008EFC100082F
:10C1300000F002F800F03EF80AA090E8000C8244FB
:10C140008344AAF10107DA4501D100F033F8AFF2D8
:10C15000090EBAE80F0013F0010F18BFFB1A43F0E5
:10C1600001031847B48F0100D48F0100103A24BF97
:10C1700078C878C1FAD8520724BF30C830C144BF4C
:10C1800004680C607047000000230024002500268E
:10C19000103A28BF78C1FBD8520728BF30C148BF2A
:10C1A0000B6070471FB516F006F900F07BF81FBD55
:10C1B00010B510BD00F09CF81146FFF7F3FF15F025
:10C1C000F7FA00F0BAF803B4FFF7F2FF03BC00F08F
:10C1D000BFF800000948804709480047FEE7FEE72E
:10C1E000FEE7FEE7FEE7FEE7FEE7FEE7FEE7FEE727
:10C1F00004480549054A064B70470000FDC4000885
:10C2000031C10008803100208039002080350020B5
:10C210008035002010B5431E13F8014F002CFBD1D0
:10C2200005E011F8014B002C03F8014B03D0521E1E
:10C23000F7D20021197010BD10B5203AC0F00B8064
:10C24000B1E81850203AA0E81850B1E81850A0E81A
:10C250001850BFF4F5AF5FEA027C24BFB1E8185074
:10C26000A0E8185044BF18C918C0BDE810405FEAE4
:10C27000827C24BF51F8043B40F8043B08BF704760
:10C28000D20728BF31F8023B48BF11F8012B28BF65
:10C2900020F8023B48BF00F8012B704770477047F9
:10C2A0007047000070B5064C7C44064D7D4403E0A9
:10C2B000206820448047241DAC42F9D170BD0000A5
:10C2C0008C8E0100E08E010010B500F009F80068C6
:10C2D00010BD10B5044600F003F8046010BD000066
:10C2E000004870471C310020004870471C31002076
:10C2F0007546FFF7F9FFAE4605006946534620F044
:10C300000700854618B020B5FFF772FFBDE8204052
:10C310004FF000064FF000074FF000084FF0000B01
:10C3200021F00701AC46ACE8C009ACE8C009ACE8B4
:10C33000C009ACE8C0098D46704710B50446AFF39C
:10C3400000802046BDE81040FFF73DBF7047000069
:10C3500001491820ABBEFEE72600020010B54CF2E2
:10C360008101134802F01AF801280DD1114A002169
:10C370000F4801F00AFD0F48283805F02FFE4CF257
:10C3800081010B4802F0EDF90B49094802F006F86B
:10C3900001280CD1074A0121054801F0F6FC0548A7
:10C3A000283805F01BFE0449014802F0DAF910BDF7
:10C3B00000640040801E00208400010010B50120B0
:10C3C00002F09EF8D8B1012002F05AFA01210C487F
:10C3D00001F085FB40B101200A4948700A4806F087
:10C3E000C7FB084988600AE00020064948700648F3
:10C3F00006F0BEFB03498968401A0249C86010BDB7
:10C4000000080140602A00209C13002010B5202065
:10C4100002F076F828B1202002F032FA012001491A
:10C42000087010BD602A002000BFFEE770470000C2
:10C4300000B5024806F0A0FB00BD00009C130020E0
:10C44000F0B5284E7668C6F3810525B1012D06D0DA
:10C45000022D40D107E0244E244F3E603FE0244EA1
:10C46000224F3E603BE01F4E766806F48032B2F504
:10C47000803F10D11B4EF66A06F080430BB91C4971
:10C4800000E01C49174E766806F40034B4F5003F0E
:10C4900002D1154900E01849124E7668C6F3834070
:10C4A000104E766806F000660EB140F010000D4E9A
:10C4B000766806F080460EB140F020000F2801D3C8
:10C4C000401C00E0801C3D2800D93F2001FB00F605
:10C4D000064F3E6003E0044E044F3E6000BF00BFC5
:10C4E000F0BD00000010024000127A002001002080
:10C4F0000024F400006CDC0200093D0010B5104877
:10C50000006840F470000E4908600E48006840F072
:10C5100001000C49086000204860C86208460068B5
:10C5200009490840074908604FF41F008860084621
:10C53000006820F48020086001F0E6FC10BD0000D7
:10C5400088ED00E000100240FFFFF6FE70B5012507
:10C550003449354802F026F901280CD131493248D6
:10C5600002F020FA304801F0D1FBC4B221462F4836
:10C570000CF0B4F900252E492B4802F013F90128DC
:10C5800007D12B49284802F00DFA28480CF072F91F
:10C5900000252849244802F005F9012804D125493D
:10C5A000214802F0FFF9002523491F4802F0FAF85C
:10C5B000012804D120491C4802F0F4F931E01F4958
:10C5C000194802F0EFF8012804D11C49164802F07E
:10C5D000E9F926E01A49144802F0E4F8012804D1E8
:10C5E0001749114802F0DEF91BE016490E4802F027
:10C5F000D9F8012804D113490B4802F0D3F910E00F
:10C600007DB10D49084802F0CDF90C49064802F009
:10C61000C9F90B49044802F0C5F90A49024802F079
:10C62000C1F970BD0503050000380140002B002052
:10C6300006030600070307000005030000050200CB
:10C64000000501000503030010B50446134820440B
:10C6500030B1B0F5806F0CD0B0F5C05F1BD111E0E8
:10C6600040F2093001F0CEFF40F2093002F082F8CA
:10C6700012E040F20A3001F0C5FF40F20A3002F049
:10C6800079F809E040F20F3001F0BCFF40F20F30C2
:10C6900002F070F800E000BF00BF10BD00DCFEBF7C
:10C6A000816801F0010119B9816841F001018160DF
:10C6B000704710B501F09AFD01F03EFE10BD00007C
:10C6C00010B504460548844207D140F2194001F0F4
:10C6D00099FF40F2194002F04DF810BD006400408F
:10C6E00070B504460D462946204602F0D9FA08B92D
:10C6F00000BFFEE705EB8500810004F1080040580B
:10C7000020F0010105EB8500820004F10800815052
:10C71000002105EB8500820004F10800815005EB43
:10C720008500820004F10C00815005EB8500820039
:10C7300004F11000815005EB8500820004F1140023
:10C7400081506068AA000F2191400843606070BD6D
:10C750000C48006900F0800020B10B48094948608E
:10C760000A4848600A480088B0F5007F09D90548A2
:10C77000006D00F0800020B103480249486403487E
:10C78000486470470020024023016745AB89EFCD24
:10C79000E0F7FF1F10B504460D48204418B1B0F56E
:10C7A000806F12D108E040F2154001F02BFF40F2FB
:10C7B000154001F0DFFF09E040F2164001F022FFD2
:10C7C00040F2164001F0D6FF00E000BF00BF10BDF0
:10C7D00000ACFFBF016841F00101016070470168D2
:10C7E00041F04001016070470A8882621D4A904210
:10C7F0000ED0B0F1804F0BD01B4A904208D01B4A9C
:10C80000904205D01A4A904202D01A4A90420BD167
:10C81000026822F07002026002684B881A430260CC
:10C8200002688B881A4302608A68C262124A904288
:10C830000AD0124A904207D0026822F44072026085
:10C8400002688B891A430260064A904202D0094A64
:10C85000904201D18A7B0263426942F00102426147
:10C8600070470000002C0140000400400008004018
:10C87000000C004000340140001000400014004053
:10C8800070B5D8B0FFF764FF00BF4FF4407000F000
:10C8900019FA0128F9D0002404E05A48205C0DF868
:10C8A0000400641CB4F5B07FF7D3564800F0C8FD0F
:10C8B00000BF4FF4407000F005FA0128F9D052484B
:10C8C000007A8DF820015048007B8DF821014E48F8
:10C8D0008089000A8DF822014B48007C8DF82301E5
:10C8E0004948407C8DF824014748807C8DF825011B
:10C8F0004548C07C8DF826014348007D8DF827010E
:10C900004148807D8DF828013F48C07D8DF8290180
:10C910003D48007E8DF82A013C4840798DF82B0176
:10C920003B4800788DF82C01394840788DF82D016E
:10C93000374800798DF82E01354880788DF82F0121
:10C940003348007E8DF830013148008B000A8DF8A5
:10C9500031012F48807E8DF832012D48408B000A2E
:10C960008DF833012948007C8DF834012748407C3C
:10C970008DF835012548807C8DF836012348C07C30
:10C980008DF837012348007A8DF838012148008955
:10C99000000A8DF839011E48007C8DF83A011C48C8
:10C9A000807C8DF83B010026002406E004F59070A1
:10C9B0001DF800003044C6B2641C3F2CF6D38DF83D
:10C9C0005F61002416E01DF80450601C1DF8000093
:10C9D00005EB0025A01C1DF8000005EB0045E01C40
:10C9E0001DF8000005EB006506496018294600F0B7
:10C9F000CDFE241DB4F5B07FE5D302F04FFB58B057
:10CA000070BD000000F003083C2A00202401002033
:10CA10009C2A00209C13002070B52DED028B8148CC
:10CA2000007806287DD100257F4806F0A1F87F49CF
:10CA3000C96C401AB0F57A7F2FD87D48807C28BB1E
:10CA40007C4880797B49C97908437A49097A09B9D0
:10CA5000012100E0002108407649C91C085CB0B102
:10CA60007548008890B9C81E8079CA1ED2791043D3
:10CA7000CA1E127A0AB9012200E0002210406B4A55
:10CA8000103232F910106C480FF096FD05E06A483C
:10CA9000008810B10020684908806848807D00F057
:10CAA000010000284DD06348C07801280ED15F49AD
:10CAB000B1F9100015F089F941EC180B9FED600BEE
:10CAC00053EC102B15F0ACF900D201255948007930
:10CAD00001280ED15549B1F9120015F076F941EC53
:10CAE000180B9FED570B53EC102B15F099F900D252
:10CAF00001255048C07870B94C49B1F9100015F0C3
:10CB000064F941EC180B9FED4E0B53EC102B15F014
:10CB1000C1FA00D801254748007900285BD1434974
:10CB200000E07CE0B1F9120015F04FF941EC180B70
:10CB30009FED430B53EC102B15F0ACFA4BD80125AD
:10CB400049E03C48C07801280ED13849B1F91000BD
:10CB500015F03BF941EC180B9FED3B0B53EC102B00
:10CB600015F05EF900D201253248007901280ED176
:10CB70002E49B1F9120015F028F941EC180B9FED80
:10CB8000320B53EC102B15F04BF900D2012529483C
:10CB9000C07870B92549B1F9100015F016F941ECCB
:10CBA000180B9FED290B53EC102B15F073FA00D8DE
:10CBB00001252048007970B91C49B1F9120015F01F
:10CBC00004F941EC180B9FED200B53EC102B15F0E2
:10CBD00061FA00D80125012D00D100BF154812F0DF
:10CBE00077F804462046012C02D0022816D10AE02C
:10CBF0000C4800781649087009200A490870154841
:10CC000007F054F90AE0074800781149087001203C
:10CC100004490870104808F0CDFE00BF00BFBDEC0D
:10CC2000028B70BD000000209C1300209C2A002075
:10CC3000602A002024010020440200203C2A002019
:10CC400000000000000024400000000000004940F7
:10CC5000010000207900002048000020816821F0B8
:10CC60000101816070472DE9F04186B004460D4610
:10CC700040F6FF774FF47848E60201A9012001F061
:10CC8000FFF90120ADF80C00ADF812000020ADF85E
:10CC90001000ADF80870ADF80A804FF6FF7000EA9A
:10CCA0001640ADF80400B0B2ADF80600ADF80E5075
:10CCB00001208DF8140001A800F05EFC06B0BDE86C
:10CCC000F08100000146074A02EB9110006801F074
:10CCD0001F0301229A40104008B101207047002034
:10CCE000FCE70000002002400161704710B50248D7
:10CCF00008F0ACFA10BD00000C12002010B50B4873
:10CD00000078FF2811D00A480BF082FC68B1074870
:10CD10000078032809D00548007806490870FF20EC
:10CD20000249087002480BF0AFFB10BD0000002064
:10CD3000410000200100002010B51B480078A8B178
:10CD40001A48008BB0F5967F10DA194805F010FFED
:10CD50001649C969411A1548008B40F25372504375
:10CD6000B1EB401F02D900200F4908700E484078EF
:10CD700010B90D488078B0B10C48408BB0F5E15F38
:10CD800011DA0B4805F0F4FE0849096A411A074810
:10CD9000408B40F253725043B1EB401F03D9002047
:10CDA00001494870887010BD240100209C2A002091
:10CDB0009C13002010B5024805F022FA10BD0000B7
:10CDC0009C2A002030B502460023002001F00043D9
:10CDD000B3F1004F07D194698DB22C400CB1012002
:10CDE00008E0002006E054698DB22C400CB101200F
:10CDF00000E0002030BD000010B504463349601A41
:10CE00008C4244D00CDCB4F1804F1CD0304820441C
:10CE100010B3B0F5806F28D0B0F5006F52D12DE07F
:10CE2000B0F5806F3CD0B0F58E3F03D0B0F5923FA7
:10CE300048D13EE040F20B3001F0E4FB40F20B3011
:10CE400001F098FC3FE04FF4806001F0DBFB4FF411
:10CE5000806001F08FFC36E040F2014001F0D2FB2F
:10CE600040F2014001F086FC2DE040F2024001F06A
:10CE7000C9FB40F2024001F07DFC24E040F2034097
:10CE800001F0C0FB40F2034001F074FC1BE040F2F3
:10CE9000044001F0B7FB40F2044001F06BFC12E0EB
:10CEA00040F2054001F0AEFB40F2054001F062FCAB
:10CEB00009E040F20D3001F0A5FB40F20D3001F029
:10CEC00059FC00E000BF00BF10BD00000010004092
:10CED00000FCFFBF016841F00101016070470000E4
:10CEE00010B504462049601A8C4228D006DC1F4841
:10CEF000204490B1B0F5806F33D117E0B0F5806F6A
:10CF000026D0B0F56C4F2CD140F20E3001F07AFBF8
:10CF100040F20E3001F02EFC24E040F2114001F00E
:10CF200071FB40F2114001F025FC1BE040F2124081
:10CF300001F068FB40F2124001F01CFC12E040F2EC
:10CF4000134001F05FFB40F2134001F013FC09E0D5
:10CF500040F2144001F056FB40F2144001F00AFC8C
:10CF600000E000BF00BF10BD004C004000BCFFBF90
:10CF7000C16841F40051C1607047000010B50C4811
:10CF80000078092812D10B4806F0D0FF0446012C86
:10CF900002D0022C09D107E00620054908700121C2
:10CFA000054811F003F800E000BF00BF10BD00000D
:10CFB00000000020790000202401002010B5464820
:10CFC000407B46490978884230D04348407B00285E
:10CFD00049D043480078082845D041480078FF28C8
:10CFE00016D100213F480BF081FA3F4890F84501E7
:10CFF0003D4981F844013D4812F0CEFD3B4800898F
:10D0000081B23A4812F0B2FD3948007834490870CC
:10D0100033480078364908700820314908702F4895
:10D0200008F05EFA0020334948701CE02A48407B33
:10D03000C8B92B480078082815D12D480078284910
:10D04000087008460078062804D10121294810F00C
:10D05000ADFF07E00620224908700121254810F0A5
:10D06000A5FF00BF00BF1E480078082833D11B4829
:10D0700008F0FEFA0446012C02D0022C2AD128E046
:10D080001B4800781649087008460078062802D028
:10D09000072809D104E00121164810F087FF16E0A7
:10D0A00015480EF081FA12E00B48407B142806D197
:10D0B00007200B49087010480EF076FA06E00620AB
:10D0C0000749087001210B4810F070FF00BF00BF36
:10D0D00000E000BF00BF10BD9C2A00202D000020F2
:10D0E00000000020410000200C1200203C2A0020FB
:10D0F00001000020240100202C00002010B52E4843
:10D100000078012831D12D480BF0E2F80446012CBB
:10D1100002D0022C28D118E029480078264908704E
:10D1200008460078062804D10121264810F03EFF69
:10D1300007E00620204908700121224810F036FF40
:10D1400000BF00BFFFF79CFB0EE01B4800781C49A6
:10D15000087003201849087002201B4981F8440117
:10D160001A4802F069FB00BF25E01948007C20F056
:10D17000020117480174807D20F002011448817576
:10D18000C07D20F002011248C175007E20F002012E
:10D190000F4801760B48407920F002000949487198
:10D1A0000C48007820F002000A49087008464078D0
:10D1B00020F00200487010BD000000204800002050
:10D1C00001000020240100200C1200206401002036
:10D1D0003C2A00209C2A002010B528480078FF280F
:10D1E0004AD127480BF028FA0446012C43D10021EC
:10D1F00023480BF07BF9234890F84501214981F839
:10D200004401214812F0C8FC1F48008981B21E4821
:10D2100012F0ACFC1D480078184908701848407896
:10D22000012824D108460078062804D10121184895
:10D2300010F0BCFE1EE011480078012803D115480B
:10D2400008F0B8FB16E00D480078022803D1124818
:10D2500004F0E6FB0EE00620084908700846007856
:10D260000A49087001210A4810F0A0FE02E00120DE
:10D270000A49887000BF00BF10BD000000000020F8
:10D28000410000200C1200203C2A00200100002058
:10D29000240100204800002045000020602A0020D2
:10D2A000014600200B2909DB2A2907DCA1F10B022A
:10D2B000084B03EB8202B2F8400C09E0012907DBBE
:10D2C0000A2905DC4A1E034B03EB8202B2F8040C68
:10D2D0007047000000600040014600208A69C2F3E8
:10D2E0000210704710B50B480078FF2810D00A488C
:10D2F0000EF022FC04465CB10748807C40B1074830
:10D30000C0684FF47A7200FB02F1044812F038FC56
:10D3100010BD000000000020602A00203C2A0020F0
:10D32000016821F0010101607047C16821F40051DA
:10D33000C160704710B50446601EB0F1807F01D314
:10D34000012010BD601E4FF0E02148610F214FF019
:10D35000FF3000F041FB00204FF0E0218861072002
:10D3600008610020EDE7000010B5214890F8540056
:10D3700070B920480078072829D01E4800781E4937
:10D38000087007201B4908701C480EF00DF91EE0BC
:10D39000174890F85400012819D11648007807283A
:10D3A00015D11548007813490870084600780628FA
:10D3B00004D10121124810F0F9FD07E006200D49C3
:10D3C000087001210E4810F0F1FD00BF00BF0948B0
:10D3D000007807280BD109480EF002FA0446012C08
:10D3E00002D0022C02D100E000E000BF00BF10BD5F
:10D3F0009C2A002000000020010000202C000020BA
:10D400002401002002688A43026070470B2809DB70
:10D410002A2807DCA0F10B02084B03EB8202A2F8DA
:10D42000401C09E0012807DB0A2805DC421E034BEB
:10D4300003EB8202A2F8041C704700000060004069
:10D4400030B5054636480088B0F5007F48D93548E4
:10D4500085421ED24FF4702000F064FE0446002C7A
:10D460005BD13148006940F002002F49086108464D
:10D470004561006940F0400008614FF4702000F001
:10D4800051FE04462848006920F002002649086140
:10D4900043E04FF4702000F056FE0446002C3CD1CF
:10D4A0002148006D40F002001F49086508464565A7
:10D4B000C06900F0020008B1084645611A48006DD5
:10D4C00040F04000184908654FF4702000F03BFE22
:10D4D00004461548006D20F00200134908651CE061
:10D4E0004FF4702000F01EFE0446B4B90E480069E7
:10D4F00040F002000C49086108464561006940F0AF
:10D50000400008614FF4702000F00CFE044606480D
:10D51000006920F0020004490861204630BD000087
:10D52000E0F7FF1FFFFF070800200240416170473E
:10D53000012904D1026842F48062026003E00268BB
:10D5400022F480620260704700BF0348006800F068
:10D5500020000028F9D070470428004005490968D8
:10D5600021F47021034A11601146096801431160DA
:10D57000704700000424014010B50021837A012285
:10D5800002FA03F13E4A126842F001023C4B1A6073
:10D590003B4A1C3212688A43394B1C331A60C289D9
:10D5A000DAB9374A0C3212688A43354B0C331A60A9
:10D5B000C288344B03EA024243881A434389304C01
:10D5C000403444F8332082882E4B03EA0242038819
:10D5D0001A43438904EBC3035A60C289012A1BD151
:10D5E000274A0C3212680A43254B0C331A60028812
:10D5F000244B03EA024243881A434389204C4034B7
:10D6000044F8332082881F4B03EA0242C3881A433E
:10D61000438904EBC3035A6082893AB9184A121D40
:10D6200012688A43164B1B1D1A6006E0144A121D2D
:10D6300012680A43124B1B1D1A6002893AB9104A3C
:10D64000143212688A430E4B14331A6006E00C4AF7
:10D65000143212680A430A4B14331A60027C012AFE
:10D6600006D1074A1C3212680A43054B1C331A6064
:10D67000034A126822F00102014B1A6010BD00003B
:10D68000006600400000FFFF016841F40071016086
:10D69000704700002DE9F04103460D461646002470
:10D6A0000027A0462A48006800F4E060B0F5E06F6B
:10D6B00003D100BF4FF0040830E02548006800F4B3
:10D6C000E060B0F5C06F03D101274FF0030825E0FB
:10D6D0001F48006800F4E060B0F5A06F02D1022797
:10D6E000B8461BE01A48006800F4E060B0F5806FAF
:10D6F00003D103274FF0010810E01548006800F43B
:10D70000E060B0F5407F03D104274FF0000805E04A
:10D710004FF4A06000F052FF0227B846C7F10400A2
:10D7200005FA00F4C8F104010F20C840304004435A
:10D7300024010848C45403F01F01012088405911F6
:10D74000890001F1E021C1F80001BDE8F08100008D
:10D750000CED00E000E400E0002003490868091F28
:10D76000096840EA014070471C28004000B50246A5
:10D7700001F0A2FA100C0449086090B2091D08607B
:10D7800001F082F900BD00001828004070B5044681
:10D790000D4600262A480088B0F5007F35D9294873
:10D7A000844219D24FF4702000F0BCFC0646002ED3
:10D7B00043D12548006940F00100234908612560F4
:10D7C0004FF4702000F0AEFC06461F48006920F0C0
:10D7D00001001D49086130E04FF4702000F0B3FCF7
:10D7E000064656BB1848006D40F001001649086512
:10D7F00025604FF4702000F0A6FC06461248006D2C
:10D8000020F001001049086517E04FF4702000F087
:10D8100089FC06468EB90C48006940F001000A49AF
:10D82000086125604FF4702000F07CFC0646064835
:10D83000006920F0010004490861304670BD000015
:10D84000E0F7FF1FFFFF0708002002402DE9F05F0F
:10D8500004460E469146022000F062F9074643480E
:10D86000B7FBF0F8B8F17F0F01D34FF07F08D4F881
:10D8700004B02BF07F0B4BEA080BC4F804B03C4813
:10D88000864218D83948B7FBF0F000F1010ABAF126
:10D890007F0F02D37F20206201E0C4F820A0700037
:10D8A000B7FBF0F5042D00D20425E069C5F30B01A8
:10D8B0000843E06158E02F4886422CD84FF4967018
:10D8C00008FB00F04FF47A71B0FBF1F0401C2062CD
:10D8D000B9F1000F08D106EB4600B7FBF0F5E0699F
:10D8E00020F48040E06109E006EBC60000EB061082
:10D8F000B7FBF0F5E06940F48040E061C5F30B0050
:10D9000008B945F00105E06940F40040E061E069D4
:10D910002843E06128E0C8EB0810C0004FF47A719A
:10D92000B0FBF1F0401C2062B9F1000F08D106EB0A
:10D930004600B7FBF0F5E06920F48040E06109E0C3
:10D9400006EBC60000EB0610B7FBF0F5E06940F40B
:10D950008040E061E06940F40040E061E069284314
:10D96000E0610120C4F89000BDE8F09F40420F0044
:10D97000A0860100801A060001460869C0B27047FF
:10D98000016841F480710160704702469068084068
:10D9900008B1012070470020FCE721B9026842F479
:10D9A0000062026003E0026822F4006202607047D5
:10D9B000CAB202617047000000B5024601F07CF96E
:10D9C000C2F303400349086090B2091D086001F0EA
:10D9D0005BF800BD0828004010B5002804DB0A07EA
:10D9E000130E054A135406E00A07140E034A00F00A
:10D9F0000F031B1FD45410BD00E400E018ED00E03D
:10DA000010B5002804DB0A07130E054A135406E07C
:10DA10000A07140E034A00F00F031B1FD45410BD55
:10DA200000E400E018ED00E010B51A480078032883
:10DA30002FD100201849087181F88D01174802F094
:10DA400031F80446012C23D115480078114908709B
:10DA500008460078012806D0062808D1012111487F
:10DA600010F0A4FA0BE0104807F0A4FF07E006202E
:10DA70000849087001210B4810F098FA00BF00BF58
:10DA8000054806F0D5FE0120034981F88D0100BF4D
:10DA900000BF10BD000000200C1200206401002017
:10DAA00001000020240100204800002070B5054638
:10DAB0000C462146284601F0F3F808B900BFFEE7FE
:10DAC00004EB8400810005F10800405840F001019A
:10DAD00004EB8400820005F10800815070BD02460D
:10DAE0009068084008B1012070470020FCE7000062
:10DAF00010B5084805F03CF807490968401A642841
:10DB000007D9044805F034F803490860034804F0D5
:10DB1000B1F810BD9C1300202800002038280020F8
:10DB20002DE9F04F8CB0074600200A904AA090E8FB
:10DB3000004CC068CDE905BECDF810A007900FF2EB
:10DB40001C1ADAE9000ACDE9020A0FF2101ADAE922
:10DB5000000ACDE9000A44484068C0F381000B90F8
:10DB60000B9820B1012804D002283FD103E03F4A9E
:10DB70003EE03F4A3CE03C48406800F4803CBCF555
:10DB8000803F12D13848C06A00F08048B8F1000FD9
:10DB900001D1374C00E0374C3348406800F400397D
:10DBA000B9F5003F02D1314C00E0334C2E484068BB
:10DBB000C0F383412C48406800F0006008B141F098
:10DBC00010012948406800F0804008B141F0200170
:10DBD0000F2901D2891C06E00F2903D33E2901D861
:10DBE000491C00E03F2104FB01F201E01F4A00BF95
:10DBF00000BF1D484068C0F3031504A8465D22FA23
:10DC000006F319484068C0F3022502A8465D23FACE
:10DC100006F0099014484068C0F3C2251DF805605D
:10DC200023FA06F0089037B1012F06D0022F06D054
:10DC3000032F0AD106E00A9208E00A9306E0099849
:10DC40000A9003E008980A9000E000BF00BF0A981D
:10DC50000CB0BDE8F08F00000000000000000000E4
:10DC600001020304060708090010024000127A00AE
:10DC70000024F400006CDC0200093D002DE9F047AF
:10DC800004460D460027B846B94600261D49601ACD
:10DC90008C421CD006DC1C48204470B1B0F5806F6B
:10DCA0001FD10FE0B0F5806F16D0B0F56C4F18D1D2
:10DCB0000320FFF735FF074614E00220FFF730FF8F
:10DCC00007460FE00220FFF72BFF07460AE002207D
:10DCD000FFF726FF074605E00220FFF721FF074672
:10DCE00000E000BF00BF07EB5500B0FBF5F64FF6B4
:10DCF000F07006EA000806F00F0948EA0900A06083
:10DD0000BDE8F087004C004000BCFFBF01464868FA
:10DD1000C0F308007047026922F4405202610269B0
:10DD20000A4302617047000010B5114800780228CC
:10DD30001DD1104803F07EFE0446012C16D10E487A
:10DD400000780B49087008460078062804D10121A4
:10DD50000A4810F02BF907E0062005490870012158
:10DD6000064810F023F900BF00BF00BF00BF10BD80
:10DD700000000020450000200100002024010020B8
:10DD8000816841F480718160704710B500F5D873E7
:10DD900003EB01131B6803F004031372137A3BB9FE
:10DDA00000F5D87303EB01131B685B0D136006E0ED
:10DDB00000F5D87303EB01131B68DB08536000F513
:10DDC000D87303EB01131B6803F00203537200F5D1
:10DDD000DA7303EB01131B681B0AD37400F5DA73C3
:10DDE00003EB01131B6803F00F03937200F5DC7360
:10DDF00003EB01131B68D37200F5DC7303EB011313
:10DE00001B681C0A147300F5DC7303EB01131B6819
:10DE10001C0C547300F5DC7303EB01131B681C0E20
:10DE2000947300F5DE7303EB01131B68D37300F5E5
:10DE3000DE7303EB01131B681C0A147400F5DE7318
:10DE400003EB01131B681C0C547400F5DE7303EB29
:10DE500001131B681C0E947421B9C36843F020039E
:10DE6000C36003E0036943F02003036110BD2DE9A3
:10DE7000F04104460D4617462946204600F010FFA3
:10DE800008B900BFFEE705EB8500810004F108003A
:10DE9000465826F440563E4305EB8500810004F1C8
:10DEA00008004650BDE8F08100200A49C96801F029
:10DEB000010109B101200CE00649C96801F0100117
:10DEC00009B1032005E00349C96801F0040101B16B
:10DED000022070470020024000200A49C96C01F06E
:10DEE000010109B101200CE00649C96C01F01001E3
:10DEF00009B1032005E00349C96C01F0040101B137
:10DF0000022070470020024010B500F08BFB10BDCE
:10DF1000C1F3080242607047C26822F4C062C26066
:10DF2000C2680A43C260704742690A43426170474F
:10DF300030B502460B460021906800F08060B0F1D9
:10DF4000806F00D110E0906800F00060B0F1006FC9
:10DF500001D1012108E0906800F08050B0F1805FAD
:10DF600001D1022100E00321032901D1032030BDAA
:10DF700002F5C07000EB0110006800F0010402F52A
:10DF8000C07000EB01100460187A88B918883B4C07
:10DF900004EA40505C7A204302F5C07404EB01149B
:10DFA0002468204302F5C07404EB0114206013E0E0
:10DFB0006FF00704586804EAC0001C7A20435C7ABA
:10DFC000204302F5C07404EB01142468204302F5D9
:10DFD000C07404EB0114206002F5C27000EB011064
:10DFE000006820F00F0402F5C27000EB011004601D
:10DFF00002F5C27000EB011000689C7A204302F524
:10E00000C27404EB01142060987B4FF07F4404EA53
:10E0100000605C7B4FF47F0505EA044420431C7BD1
:10E020002D1205EA04242043DC7A204302F5C4744F
:10E0300004EB01142060987C2C0404EA00605C7CF2
:10E040002D0205EA044420431C7C2D1205EA042419
:10E050002043DC7B204302F5C67404EB01142060EE
:10E0600002F5C07000EB0110006840F0010402F5F9
:10E07000C07000EB01100460084678E70000E0FF84
:10E0800010B5024609B900BFFEE732B1012A16D029
:10E09000022A20D0032A41D12EE000234B71CB71FC
:10E0A0008B7140F2FF334B8100230B724B700223C4
:10E0B0008B700023CB700B714B720B7030E001231F
:10E0C000CB8100230B740B810B804B808B80CB802A
:10E0D0008B814B8124E0002005E0002401F10B033B
:10E0E0001C54431CD8B20828F7D300238B724B6012
:10E0F0000B724B720B6013E0002005E0002401F16D
:10E100000B031C54431CD8B20828F7D300238B728E
:10E110004B600B72CB744B720B6001E000BFFEE7EB
:10E1200000BF10BD00B50346012200BFFFF7BCFED3
:10E1300002465B1E012A01D1002BF7D1012A00D132
:10E140000422104600BD00B50346012200BFFFF7C0
:10E15000C3FE02465B1E012A01D1002BF7D1012A22
:10E1600000D10422104600BD30B50C4600210168E4
:10E1700021F002012143016042EA0305856030BDC0
:10E18000184B5968184B1940164BDA6A22F00052A6
:10E190000C2820D2DFE800F0060708091F0C1F0D2D
:10E1A0001516171800BF00BF00BF41EA803113E009
:10E1B00000BF20F004004FF0805343EA803319433E
:10E1C0000AE000BF00BF00BF20F00C0041EA803130
:10E1D00042F0005200E000BF00BF024B5960DA621B
:10E1E0007047000000100240FF3FFFEF0348006A45
:10E1F00040F480300149086270470000001002407E
:10E20000044A116A21F4407141EA0002014B1A628A
:10E2100070470000001002400A460021C16821F04A
:10E2200004011143C160704701F001021AB1426854
:10E2300022F04002426001F002021AB1426822F06C
:10E240002002426001F004021AB1426822F080020A
:10E250004260704750F8802F22F4405202600268FA
:10E260000A4340F880297047F0B50A46002300248D
:10E270000021002500F00046B6F1004F02D11D4EEE
:10E28000F16901E01B4E7168C0F3034583B200F4ED
:10E290004016B6F5401F08D121F07061154E766822
:10E2A00026F07066134F7E6012E000F48016B6F51B
:10E2B000801F06D1032606FA05F4A14341F07061E0
:10E2C00006E0460D360103FA06F6B14341F07061EF
:10E2D00022B1460D360103FA06F6314300F000463E
:10E2E000B6F1004F02D1034EF16101E0014E7160C1
:10E2F000F0BD00000000014012F1020F02D121F038
:10E30000010101E041F0010101617047024A0A4048
:10E310000243024B1A60704780FFFF1F08ED00E0C8
:10E32000044A516821F4605141EA0002014B5A60ED
:10E3300070470000001002400348006A20F480305B
:10E34000014908627047000000100240C160704738
:10E350000A460021C16821F008011143C1607047DD
:10E36000C26822F48052C260C2680A43C260704729
:10E37000816841F00801816000BF816801F00801F7
:10E380000029FAD1816841F00401816000BF8168F1
:10E3900001F004010029FAD170470000F0B50546EC
:10E3A0000C46002600274CF28100844205D1002152
:10E3B000284600F0C1FC064619E01348844205D106
:10E3C0000121284600F0B8FC064610E00F488442C0
:10E3D00004D12846FEF780FF064608E005EB14301E
:10E3E0000068C4F384120121914000EA01066869C3
:10E3F00004F01F020121914000EA010716B10FB19C
:10E400000120F0BD0020FCE784000100CB8001006A
:10E4100070B505460C462146284600F041FC08B977
:10E4200000BFFEE704EB8400810005F108004058BE
:10E4300040F0200104EB8400820005F108008150C7
:10E4400070BD00000648006820F00800044908601C
:10E4500000BF0348006800F008000028F9D07047AA
:10E460000428004081621AB9436943F00103436103
:10E47000704710B5C1F38912825801F01F040123BF
:10E48000A3401A43C1F38913C25010BD2DE9F041D6
:10E4900004460D4617462946204600F001FC08B9FF
:10E4A00000BFFEE705EB8500810004F10800465837
:10E4B00026F440663E4305EB8500810004F1080028
:10E4C0004650BDE8F0812DE9F04104460D4617465F
:10E4D0002946204600F0E4FB08B900BFFEE705EB43
:10E4E0008500810004F10800465826F440763E433A
:10E4F00005EB8500810004F108004650BDE8F0817D
:10E5000001460748006800EA01020548143800681F
:10E5100000EA010312B10BB1012070470020FCE7B3
:10E520001404014010B500228B071C0F0F2303FABF
:10E5300004F204290EDA204B9B6893431E4CA3601F
:10E5400023469B688C07240F00FA04F423431A4CDB
:10E55000A3602FE008290EDA174BDB689343164CB3
:10E56000E3602346DB688C07240F00FA04F423439E
:10E57000114CE3601EE00C290EDA0F4B1B6993432C
:10E580000D4C236123461B698C07240F00FA04F409
:10E590002343094C23610DE0074B5B699343064C11
:10E5A000636123465B698C07240F00FA04F423435C
:10E5B000014C636110BD00000000014002490143AD
:10E5C000024A1160704700000000FA050CED00E0FF
:10E5D0000348006840F480700149086070470000FB
:10E5E00000700040064A02EB9011096800F01F031A
:10E5F00001229A401143024B03EB901211607047C5
:10E6000000100240064A02EB9011096800F01F0357
:10E6100001229A401143024B03EB901211607047A4
:10E6200000100240002000213E4A126842F480326D
:10E630003C4B1A6000BF401C3A4A126802F4003199
:10E6400011B9B0F5006FF6D1364A126802F4003203
:10E650000AB900BFFEE7334AD26942F08052314B1B
:10E66000DA61314A126842F440422F4B1A602D4A57
:10E6700052682C4B5A601A4652685A601A465268C1
:10E6800042F480625A601A46526822F440325A605C
:10E690001A46526842F440325A601A465268234B76
:10E6A0001A40204B5A601A465268214B1A431D4BA0
:10E6B0005A601A46126842F080721A6000BF194A06
:10E6C000126802F00072002AF9D0174A126842F468
:10E6D0008032154B1A6000BF134A526802F4803230
:10E6E000002AF9D0104A126842F400320E4B1A6028
:10E6F00000BF0D4A526802F40032002AF9D0094ADC
:10E70000526822F00302074B5A601A46526842F0E0
:10E7100002025A6000BF034A526802F00802002A4F
:10E72000F9D070470010024000700040FFFFC3B7EF
:10E730000000340850F8802F22F400620260026862
:10E740000A4340F88029704710B5C1F389128258F6
:10E7500001F01F040123A3409A43C1F38913C2505F
:10E7600010BDC1F3841301229A4000EB11331A60EB
:10E7700070470000064A02EB9011096800F01F0381
:10E7800001229A409143024B03EB901211607047B3
:10E79000001002400A460021416921F04001114366
:10E7A0004161704770B5024600230024C1F389100F
:10E7B000105801F01F060125B54000EA050302EBE1
:10E7C00091500068C1F304460125B54000EA0504F4
:10E7D00014B10BB1012070BD0020FCE730B5012958
:10E7E00002D002291AD10CE0C36A23F47003C36279
:10E7F000C36A541E4FF4700505EA04542343C362F0
:10E800000DE0836B23F440138363836B541E4FF43A
:10E81000401505EA04542343836300E000BF00BFB2
:10E8200030BD21B1826842F40062826003E08268F8
:10E8300022F400628260704770B506460C461546A9
:10E840002146304600F02CFA08B900BFFEE704EB81
:10E850008400810006F11400455070BD70B5064675
:10E860000C4615462146304600F01AFA08B900BF9A
:10E87000FEE704EB8400810006F11000455070BDF6
:10E880000149086070470000140401400A46002155
:10E89000416921F08001114341617047F0B51D4687
:10E8A00006290CD2436B01EB81071F26BE40B34300
:10E8B00001EB810602FA06F63343436322E00C299A
:10E8C0000ED2036B8E1F06EB86071F26BE40B34396
:10E8D0008E1F06EB860602FA06F63343036311E049
:10E8E00010290FD2C36AA1F10C0606EB86071F267A
:10E8F000BE40B343A1F10C0606EB860602FA06F60B
:10E900003343C3620A2A0CD2046902EB420707268A
:10E91000BE40B44302EB420605FA06F634430461F6
:10E9200011E0122A0FD2C468A2F10A0606EB4607CC
:10E930000726BE40B443A2F10A0606EB460605FAD6
:10E9400006F63443C460F0BD70B505460C4621465A
:10E95000284600F0A5F908B900BFFEE704EB8400E3
:10E96000810005F10800405840F0800104EB84006C
:10E97000820005F10800815070BD70B506460C4656
:10E9800015462146304600F08BF908B900BFFEE776
:10E99000A9B204EB8400820006F10C00815070BD26
:10E9A0004162704710B500EB91521268C1F3044404
:10E9B0000123A3409A4300EB91531A6010BD72B13A
:10E9C00001F001031BB1836843F48013836001F0FD
:10E9D000020393B1836843F4004383600DE001F0C8
:10E9E00001031BB1836823F48013836001F00203E9
:10E9F0001BB1836823F4004383607047AAB101F41C
:10EA000080731BB1436843F48073436001F48063F7
:10EA10001BB1436843F48063436001F00203CBB150
:10EA2000836843F00203836014E001F480731BB138
:10EA3000436823F48073436001F480631BB143682F
:10EA400023F48063436001F002031BB1836823F069
:10EA500002038360704770B505460C462146284680
:10EA600000F01EF908B900BFFEE704EB8400810046
:10EA700005F10800405820F0400104EB84008200BA
:10EA800005F10800815070BD0348006820F01000B7
:10EA900001490860704700000428004010B531B1FA
:10EAA00001293FD002297DD003297CD1BFE0036A30
:10EAB00023F001030362836923F003038361036A84
:10EAC000146823430362036A23F002030362036AA8
:10EAD000D488234303626A4B984202D0694B984220
:10EAE0001FD1036A23F004030362036A948823435B
:10EAF0000362036A23F008030362036A1489234351
:10EB00000362436823F4807343604368548923435A
:10EB10004360436823F4007343604368948923434C
:10EB20004360ABE0036A23F010030362836923F4BC
:10EB300040738361036A146843EA04130362036A3F
:10EB400023F020030362036AD48843EA04130362B8
:10EB50004B4B984202D04B4B984226D1036A23F08C
:10EB600040030362036A948843EA04130362036A5E
:10EB700023F080030362036A148943EA04130362E7
:10EB8000436823F4806343604368548943EA840301
:10EB90004360436823F4006343604368948943EA15
:10EBA000840301E002E068E0436067E0036A23F465
:10EBB00080730362C36923F00303C361036A1468AB
:10EBC00043EA04230362036A23F400730362036AC3
:10EBD000D48843EA04230362294B984202D0294B8C
:10EBE000984223D1036A23F480630362036A948802
:10EBF00043EA04230362036A23F400630362036AA3
:10EC0000148943EA04230362436823F48053436076
:10EC10004368548943EA04134360436823F4005370
:10EC200043604368948943EA0413436026E0036A1F
:10EC300023F480530362C36923F44073C361036AFE
:10EC4000146843EA04330362036A23F40053036243
:10EC5000036AD48843EA04330362094B984202D022
:10EC6000084B984208D1436823F4804343604368CB
:10EC7000548943EA8413436000E000BF00BF10BD25
:10EC8000002C014000340140012904D1426C42F4BF
:10EC90000042426403E0426C22F400424264704746
:10ECA00002460120034B9A4202D1042900DD0020D4
:10ECB00070470000000402400348006840F0100064
:10ECC00001490860704700000428004003480068BC
:10ECD00040F400000149086070470000082401402A
:10ECE00070B504460D46164629462046FFF7D8FF64
:10ECF00008B900BFFEE776B905EB8500810004F195
:10ED00000800405820F0100105EB8500820004F156
:10ED1000080081500DE005EB8500810004F108003A
:10ED2000405840F0100105EB8500820004F1080016
:10ED3000815070BDC16270470246002019B9D36886
:10ED400003F0030004E0012902D1136903F003007A
:10ED5000704721B9826842F08002826005E0012993
:10ED600003D1826822F080028260704721B9026874
:10ED700042F00802026005E0012903D1026822F096
:10ED8000080202607047016821F08001016070474D
:10ED900031B101290CD0022913D0032922D118E066
:10EDA000836923F0040383618369134383611AE059
:10EDB000836923F480638361836943EA0223836167
:10EDC00011E0C36923F00403C361C3691343C36142
:10EDD00009E0C36923F48063C361C36943EA022382
:10EDE000C36100E000BF00BF704731B101290CD002
:10EDF000022913D0032922D118E0836923F070037C
:10EE000083618369134383611AE0836923F4E043D8
:10EE10008361836943EA0223836111E0C36923F0BC
:10EE20007003C361C3691343C36109E0C36923F479
:10EE3000E043C361C36943EA0223C36100E000BF4A
:10EE400000BF7047012902D0022910D107E0836872
:10EE500023F46023836083681343836008E083683E
:10EE600023F4E043836083681343836000E000BFC2
:10EE700000BF704731B101290CD0022913D00329FA
:10EE800022D118E0836923F0080383618369134367
:10EE900083611AE0836923F400638361836943EA31
:10EEA0000223836111E0C36923F00803C361C369CE
:10EEB0001343C36109E0C36923F40063C361C369F9
:10EEC00043EA0223C36100E000BF00BF704731B1D5
:10EED000012906D0022906D0032908D105E04263A2
:10EEE00006E0826304E0C26302E0026400E000BF67
:10EEF00000BF7047426822F07002426042680A43D5
:10EF00004260704710B5FDF7F9FA124805F09CF819
:10EF10004FF40050FFF704FA0F4803F0EDFD62B61E
:10EF20000D4803F0A7FD0D4810F07CFC0C4802F0E2
:10EF3000B3FF0C4809F0FAFB0B4802F089FD0B48BF
:10EF40000CF050F80A480CF0C5FE0A480CF07AFCA8
:10EF500010BD00000C1200209C1300203C2A002051
:10EF6000581E0020002B002038280020242A0020D2
:10EF700044020020602A002070B502464FF6FF735D
:10EF80000020146824F002041460146844F00104A2
:10EF9000146000E05B1E546804F001040CB9002BFF
:10EFA000F8D1546804F001040CB9002074E00C7826
:10EFB0004FF0404505EA84744D784FF0407606EAFC
:10EFC00005652C438D784FF4702606EA05452C43E1
:10EFD000CD784FF4E00606EA05552C434D896D1EA9
:10EFE000C5F309052C43D4610C79012C04D11468B4
:10EFF00044F08004146003E0146824F0800414607A
:10F000004C79012C04D1146844F04004146003E0EE
:10F01000146824F0400414608C79012C04D1146825
:10F0200044F02004146003E0146824F02004146009
:10F03000CC79012C04D1146844F01004146003E06E
:10F04000146824F0100414600C7A012C04D11468A4
:10F0500044F00804146003E0146824F00804146009
:10F060004C7A012C04D1146844F00404146003E0C9
:10F07000146824F004041460146824F0010414607B
:10F080004FF6FF7300E05B1E546804F001040CB1FE
:10F09000002BF8D103B1012070BD000008480069C1
:10F0A00040F080000649086106480088B0F5007FFE
:10F0B00004D90846006D40F08000086570470000E4
:10F0C00000200240E0F7FF1FF0B5D9B03E4840797C
:10F0D000202877D13C488079202873D13A48C079DC
:10F0E00020286FD1FDF734FB00BF4FF44070FDF7CF
:10F0F000E9FD0128F9D0002404E03348205C01A98F
:10F100000855641CB4F5B07FF7D32F48FEF798F983
:10F1100000BF4FF44070FDF7D5FD0128F9D0002461
:10F1200018E0002500260BE006EB4401274810F804
:10F13000110000F00F0005432807050E701CC6B231
:10F14000022EF1DB05F1200000F03F0501A9601D52
:10F150000D54641C032CE4D3002415E00025002684
:10F160000BE006EB4401194810F8110000F0030011
:10F170000543A806050E701CC6B2042EF1DB01A9DA
:10F1800004F110000D54641C082CE7D3002414E093
:10F1900001A8075D601C01A9085C07EB0027A01C03
:10F1A000085C07EB0047E01C085C07EB00670649BA
:10F1B00060183946FEF7EAFA241DB4F5B07FE7D3AC
:10F1C000FFF76CFF59B0F0BD00F003083E280020A7
:10F1D00002460020106800F441500B6818434B6849
:10F1E00018438B681843CB6818430B6918434B6965
:10F1F00018438B6918431060D36923F40063D3610B
:10F200007047000010B52C4B1B6883432A4C2360C9
:10F21000231D1B688343241D2360231D1B68834318
:10F22000241D2360231D1B688343241D236011B10B
:10F2300001290ED105E0204B1B6803431E4C2360BF
:10F2400008E01D4B1B1D1B6803431B4C241D236042
:10F2500000E000BF00BF22B1012A0FD0022A27D14F
:10F2600019E0154B08331B680343134C0834236023
:10F27000231D1B688343241D23601AE00E4B0833B3
:10F280001B6883430C4C08342360231D1B68034315
:10F29000241D23600DE0084B08331B680343064C14
:10F2A00008342360231D1B680343241D236000E0F2
:10F2B00000BF00BF10BD000000040140F0B50C46C7
:10F2C00016460025002204F00F0504F0100747B190
:10F2D000042E05D145F00305C76B1F43C76300E04B
:10F2E0003543002118E001278F401F4097B1026885
:10F2F0004FEA810C0F2707FA0CF7BA438F0005FA83
:10F3000007F73A43282C01D1436102E0482C00D191
:10F31000036102604F1CB9B20829E4D308211CE044
:10F3200001278F401F40B7B14268A1F108074FEA9B
:10F33000870C0F2707FA0CF7BA43A1F10807BF00A3
:10F3400005FA07F73A43282C01D1436102E0482C23
:10F3500000D1036142604F1CB9B21029E0D3F0BD67
:10F3600070B590B00026002500240BE0C54820446D
:10F3700090F820010DF804001DF804002844C5B2DF
:10F38000601CC4B23F2CF1DBBF480078A84200D11A
:10F390000126012E7ED19DF80000BC4988609DF8B1
:10F3A00001109DF8020001EB0021B848C1609DF8F2
:10F3B000031001749DF8041041749DF805108174C8
:10F3C0009DF80610C1749DF8071001759DF808108E
:10F3D00081759DF80910C1759DF80A1001769DF898
:10F3E0000B00AB4948719DF80C00AA4908709DF8C4
:10F3F0000D0048709DF80E0088809DF80F00887001
:10F400009DF810109DF8110001EB0020A149088320
:10F410009DF812109DF8130001EB00209D494883D0
:10F420009DF814009A4908749DF8150048749DF8D9
:10F43000160088749DF81700C8749DF818109DF880
:10F44000190001EB002000B2934908819DF81A00D1
:10F45000904908829DF81B108E4841828B48806835
:10F460000A2803DB89488068642800DD0026874875
:10F47000C068142804DB8548C068B0F5967F00DDBD
:10F4800000268248007C032800DD00267F48407C5F
:10F49000032800E09BE000DD00267C48807C0328F8
:10F4A00000DD00267948C07C032800DD002677486F
:10F4B000807D032800DD00267448C07D032800DD20
:10F4C00000267248007E032800DD0026704840793F
:10F4D000032800DD00266F480078032800DD0026A1
:10F4E0006C484078032800DD00266A48B0F9040023
:10F4F000642800DD002667488078032800DD0026A8
:10F500006448008B1E2803DB6248008B3C2800DD2A
:10F5100000266048408B0A2805DB5E48408B45F298
:10F520006041884200DD00265948007C172800DD34
:10F5300000265748407C3B2800DD00265448807C4C
:10F54000172800DD00265248C07C3B2800DD00263D
:10F550004E48807D00F00100B0B14E48B0F9100077
:10F56000072804DB4B48B0F91000202800DD0026F6
:10F570004848B0F91200072804DB4648B0F91200E9
:10F58000202817DD002615E04248B0F910002D288C
:10F5900004DB4048B0F910005A2800DD00263D4841
:10F5A000B0F912002D2804DB3A48B0F912005A28AD
:10F5B00000DD00263848B0F90800B0F5347F05DCDE
:10F5C0003548B0F9080010F5347F00DA0026002E27
:10F5D00055D164202D4988605A212C48C1600121F1
:10F5E00001740021417481740121C17403214175AA
:10F5F0000021017581750121C17501760020244922
:10F60000487101202349087000204870322088800A
:10F61000002088701E2008834FF4B46048830720C0
:10F620001B49087400204874162088740020C87490
:10F630001648807D30B116201649088216211548DB
:10F64000418217E0B3EE060A134803F0D3FABDEE89
:10F65000C00A10EE100A00B20E490882B3EE060A84
:10F660000D4803F0C7FABDEEC00A10EE100A01B251
:10F6700008484182002008490881FDF701F910B0CF
:10F6800070BD000000F003085FF103083C2A002071
:10F69000240100209C2A00209C13002070B5002427
:10F6A00006E01A482044007AFF2800D070BD641C90
:10F6B000082CF6D3FDF74CF800BF4FF44070FDF76F
:10F6C00001FB0128F9D0002419E0002500260CE0F8
:10F6D00004EB440006EB40010D4810F8110000F067
:10F6E000010005436D00701CC6B2202EF0DB0749F7
:10F6F000083101EB84002946FEF748F8641C022C0F
:10F70000E3D3FFF7CBFC00BFD0E7000000F0030815
:10F710003E280020F0B587B004460F46002F48D0A1
:10F720003C483D4900227E23CDE90032CDE902105C
:10F73000608A323882B2208A401F81B22A23374839
:10F7400009F052FB3348344900222E23CDE9003220
:10F75000CDE90210608A0C3882B2208AC01F81B2C3
:10F760002E4809F041FB2B486FF07F41CDE9021094
:10F770002B4903C9CDE90001608A283882B2208A6A
:10F780000A3081B227A3284803F0E2FB21486FF03A
:10F790007F41CDE90210224903C9CDE90001608A09
:10F7A0002D3082B2208A0A3081B220A31E4803F095
:10F7B000CFFB002504E0002004A94855681CC5B211
:10F7C0000A2DF8DB00261A4890F903000A2805DA0A
:10F7D00030223046711CCEB204A90A54144890F964
:10F7E000032004A88119104803F058FA3044C6B227
:10F7F00008486FF07F41CDE902100E4903C9CDE9F9
:10F800000001628A218A04AB074803F0A1FB07B01C
:10F81000F0BD000040404000C0C0C000BC1300204C
:10F82000000100202B0000007C0100202D000000C2
:10F830000C120020080100201FB504462448007E59
:10F8400008B1012000E000200146204600F04EF8FB
:10F850000020A071FF2020706070A0704FF47A70BB
:10F86000A0800020F0214FF4A0730246CDE90010E3
:10F870000146184809F06EFB01204FF4CC710223B9
:10F880000A22CDE900100521124809F0C9FE002026
:10F890006FF07F41CDE902100F4903C90FA30A227F
:10F8A000CDE90001A021104804F06BFA01212046A7
:10F8B00000F012FD0121204600F0DEFB0121204670
:10F8C000FFF728FF0121204600F034F81FBD00009B
:10F8D0003C2A0020BC1300200001002053657475F1
:10F8E0007020436C6F636B007C01002030B50A46CA
:10F8F00000BF00BF0AB1042100E003214C1E4625D1
:10F900006C43C4F5907303EBD374C4F34F040481C8
:10F91000642343810389463383816423C3818389BC
:10F920004633038264234382038A463383826423FB
:10F93000C38230BD2DE9F0418AB080460F46002FCA
:10F9400039D05048504900221E23CDE90032CDE97C
:10F950000210CD2205214D4809F046FA49484A498E
:10F9600000221E23CDE90032CDE90210CD2240F263
:10F970001D11464809F038FA42486FF07F41CDE941
:10F980000210434903C943A3D222CDE900010F214C
:10F99000414803F0DDFA3B486FF07F41CDE90210AA
:10F9A0003B4903C93DA3D422CDE9000140F2271110
:10F9B000394803F0CDFA002504E0002005A9485598
:10F9C000681C85B2142DF8DB002420222146641C1B
:10F9D00005A8425443222146641C42546F2221460A
:10F9E000641C425472222146641C42542146641C09
:10F9F000425465222146641C425463222146641C01
:10FA0000425474222146641C425469222146641CDB
:10FA100042546F222146641C42546E222146641CCB
:10FA2000425420222146641C42541D48B0F908600B
:10FA3000002E07DA704206B22D222046611C8CB2DD
:10FA400005A90A5405A801193246134803F026F9FE
:10FA5000204484B220222046611C8CB205A90A549D
:10FA600000206FF07F41CDE90210094903C905ABC1
:10FA7000D422CDE90001A021074804F082F90AB0A0
:10FA8000BDE8F08140404000C0C0C000BC13002071
:10FA9000000100202D0000007C0100202B00000050
:10FAA0009C13002070B504460025FE4890F905001F
:10FAB0002178884206D0FB484079207000212046FA
:10FAC00000F00AFCF74890F902006178884206D0FD
:10FAD000F448807860700021204600F0CDFAF148AB
:10FAE00090F90300A178884206D0EE48C078A07053
:10FAF00000212046FFF70EFEEB48B0F90800B4F9EC
:10FB00000410884206D0E8480089A08000212046E1
:10FB1000FFF710FFE548807C01286AD1E348807830
:10FB20000028FAD1DF4800780028F6D1E048807933
:10FB3000E0B9DE48B0F91400002817DBDB48B0F963
:10FB400014103C2912DCB0F9160000280EDBD7484F
:10FB5000B0F916103C2909DC007C38B90120D349E2
:10FB600008740125A07908B1FCF78AFED048807995
:10FB7000F0BBCE48B0F914102089143881423CDB28
:10FB8000CA48B0F9141020893930814235DCC748A1
:10FB9000B0F916106089463881422EDBC348B0F9AF
:10FBA00016106089C01D814227DC0020BF49887083
:10FBB000BD4803F03DF8D8B9BE48007828B94FF4E5
:10FBC000FA71B94803F03CF804E04FF49671B64876
:10FBD00003F036F80120B7490870B2484079401C5C
:10FBE00040B2B0494871084690F90500062801E086
:10FBF00003E025E201DD00204871AD488079E8BBD3
:10FC0000AA48B0F91410A089143881423ADBA748F9
:10FC1000B0F91410A0893930814233DCA348B0F91F
:10FC20001610E089463881422CDBA048B0F9161046
:10FC3000E089C01D814225DC00209C4988709A48DB
:10FC400002F0F6FFD0B99B48007828B94FF4FA715A
:10FC5000954802F0F5FF03E0C821934802F0F0FF59
:10FC60000120944908708F488078401C40B28D492B
:10FC70008870084690F90200172800E002E001DDD4
:10FC8000002088708A488079F0BB8848B0F9141049
:10FC9000208A143881423ADB8448B0F91410208A53
:10FCA0003930814233DC8148B0F91610608A463819
:10FCB00081422CDB7D48B0F91610608AC01D81425C
:10FCC00025DC002079498870774802F0B1FFD8B967
:10FCD0007848007828B94FF4FA71734802F0B0FF01
:10FCE00003E06421704802F0ABFF01207149087005
:10FCF0006C48C078401C40B26A49C870084690F908
:10FD000003003B2803DD00E001E00020C8706848E4
:10FD10008079E8BB6548B0F91400B0F5897F39DD1A
:10FD20006248B0F91400B0F5A37F33DA5F48B0F948
:10FD30001600C3282EDB5D48B0F91600F52829DC33
:10FD400000205A498870584802F072FF00BB594899
:10FD5000007828B94FF4FA71534802F071FF03E0BC
:10FD60003221514802F06CFF0120524908704E4880
:10FD70000089401C00B24C4908810846B0F90800CF
:10FD8000B0F5347F02DD4FF630500881012000E0ED
:10FD900000E0A07146488079F0BB4448B0F91410E7
:10FDA0002089143881423BDB4048B0F91410208987
:10FDB0003930814234DC3D48B0F9161060891D307D
:10FDC00081422DDB3948B0F9161060896A308142D2
:10FDD00026DC002035498870334802F029FFD8B965
:10FDE0003448007828B94FF4FA712F4802F028FF00
:10FDF00004E04FF496712C4802F022FF01202D49B7
:10FE0000087028484079401E40B22649487108468B
:10FE100090F90500002800E002E001DA06204871B0
:10FE200023488079E0BB2148B0F91410A089143828
:10FE3000814245DB1D48B0F91410A0893930814258
:10FE40003EDC1A48B0F91610E0891D30814237DBDC
:10FE50001648B0F91610E0896A30814230DC002083
:10FE600012498870104802F0E3FEC8B911480078C2
:10FE700028B94FF4FA710C4802F0E2FE03E0C82101
:10FE8000094802F0DDFE01200A4908700548807823
:10FE9000401E40B203498870084690F902000BE00A
:10FEA0000EE000000C1200209C130020602A0020AD
:10FEB0004402002078000020002801DA1720887012
:10FEC00067488079F0BB6748B0F91410208A14386D
:10FED00081423ADB6348B0F91410208A39308142FC
:10FEE00033DC6048B0F91610608A1D3081422CDB8B
:10FEF0005C48B0F91610608A6A30814225DC002027
:10FF000058498870584802F093FED8B9574800788D
:10FF100028B94FF4FA71544802F092FE03E06421CC
:10FF2000514802F08DFE0120504908705048C078B9
:10FF3000401E40B24E49C870084690F903000028A0
:10FF400003DA00E001E03B20C87045488079E0BB5F
:10FF50004448B0F9140010F1050F36DB4148B0F900
:10FF600014002D2831DC3F48B0F91600C3282CDBE3
:10FF70003C48B0F91600F52827DC00203949887084
:10FF8000394802F055FE00BB3848007828B94FF4D4
:10FF9000FA71354802F054FE03E03221324802F093
:10FFA0004FFE0120314908702F480089401E00B2E1
:10FFB0002D4908810846B0F9080010F5347F02DAAF
:10FFC0004FF4347008810120A0712A48007E60B38C
:10FFD0002348807948BB2348B0F91410A08A14380C
:10FFE000814229DB1F48B0F91410A08A39308142C0
:10FFF00022DC1C48B0F91610E08A143881421BDB61
:020000040801F1
:100000001848B0F91610E08A3930814214DC01201A
:1000100014498870164890F902000C2806DA144832
:1000200080780C3040B21249887005E01048807822
:100030000C3840B20E49887001200A4908740DE05E
:100040000848807C50B90020084908700021064803
:1000500002F0F6FD0020034988700874284670BD40
:1000600044020020602A00209C1300207800002019
:100070000C1200203C2A0020F0B587B004460F4641
:10008000002F5CD08748884900227E23CDE90032CA
:10009000CDE90210E089323882B2A089401F81B2D6
:1000A0002A23824808F0A0FE7E497F4A00202E23A2
:1000B000CDE90030CDE90221E0890C3882B2A08977
:1000C000C01F81B2794808F08FFE76486FF07F41FB
:1000D000CDE90210764903C9CDE90001E08928384D
:1000E00082B2A0890A3081B272A3734802F030FF55
:1000F0006C486FF07F41CDE902106D4903C9CDE92D
:100100000001E0892D3082B2A0890A3081B26BA350
:10011000694802F01DFF6A48007E80B1614862496B
:1001200000222E23CDE90032CDE90210E08A0C38FE
:1001300082B2A08AC01F81B25C4808F055FE00263A
:1001400004E0002004A98855701CC6B20A2EF8DB12
:1001500000255B48007E00286CD05A4890F90200C8
:100160000C2832DA5748867806B90C260A2E05DAAA
:1001700030222846691CCDB204A90A5404A84119AA
:1001800032464D4802F08AFD2844C5B245486FF01A
:100190007F41CDE902104C4903C9CDE90001E28954
:1001A000A18904AB444802F0D3FE3E486FF07F4182
:1001B000CDE90210444903C9CDE90001E28AA18AD0
:1001C00042A33D4802F0C4FE58E03E4880780C3817
:1001D000C6B206B90C260A2E05DA30222846691C5A
:1001E000CDB204A90A5404A841193246324802F09B
:1001F00055FD2844C5B22B486FF07F41CDE9021070
:10020000314903C9CDE90001E289A18904AB2A483B
:1002100002F09EFE23486FF07F41CDE902102A498B
:1002200003C9CDE90001E28AA18A29A3224802F08C
:100230008FFE23E0234890F902000A2805DA3022D5
:100240002846691CCDB204A90A541E4890F9022020
:1002500004A84119184802F021FD2844C5B21148EC
:100260006FF07F41CDE90210174903C9CDE90001C4
:10027000E289A18904AB104802F06AFE00206FF009
:100280007F41CDE902100A4903C9CDE90001E289A5
:10029000A0892E3081B20FA3074802F059FE07B0A3
:1002A000F0BD000040404000C0C0C000BC130020B2
:1002B000000100202B0000007C0100202D00000028
:1002C0003C2A00200C12002008010020414D0000B3
:1002D000504D00003A0000002DE9F0418AB004467C
:1002E0000F461822444904A8FBF7A6FF17B343485A
:1002F000434900227E23CDE90032CDE90210608916
:10030000323882B22089401F81B22A233D4808F04A
:100310006BFD3A483A4900222E23CDE90032CDE95F
:10032000021060890C3882B22089C01F81B2354822
:1003300008F05AFD344890F90500002858DB32488F
:1003400090F90500062853DC2F484079401E45B23D
:100350002D4890F905804079401C46B2002D00DA06
:100360000625062E00DD002624486FF07F41CDE9EA
:100370000210264903C9CDE9000106EB46000DF144
:10038000100C00EB0C036089283882B22089001D14
:1003900081B21F4802F0DCFD18486FF07F41CDE9C3
:1003A00002101C4903C9CDE9000108EB48000DF11A
:1003B000100C00EB0C0362892189154802F0C8FD7E
:1003C0000E486FF07F41CDE90210104903C9CDE915
:1003D000000105EB45000DF1100C00EB0C036089EA
:1003E0002D3082B22089001D81B2094802F0B0FD93
:1003F0000AB0BDE8F08100008C26020840404000B1
:10040000C0C0C000BC1300200C120020000100205E
:100410007C01002008010020704700001CB5044644
:1004200094F84300E17A88422AD0E07A84F84300C5
:10043000E07A012819D1207B58B901204FF4CC7102
:1004400064230522CDE9001011460E4809F0E8F8B2
:1004500016E001204FF4CC7164230522CDE9001091
:100460001146084809F0DCF80AE001204FF4CC718D
:1004700064230522CDE900101146024809F0D0F8A6
:100480001CBD0000BC13002003B5B1B000202C90AF
:100490001822FE4924A8FBF7CFFE322023902D20FE
:1004A000229032202190C820209023201F904020AD
:1004B0001E901E201D901C904FF487701B904220B0
:1004C0001A901E2019901890322017905F201690D5
:1004D00032201590C820149023201390722012907F
:1004E0001E20119010904FF487700F9074200E9082
:1004F0001E200D900C9014200B9032200A90A0200A
:1005000009902820089096200790D1200690E04876
:10051000807C012855D1DE488078002851D131985F
:10052000407A68BBDA48B0F91400B0F5877F27DD60
:10053000D748B0F914104FF4A570814220DAD4489E
:10054000B0F9160000281BDDD148B0F916103C297F
:1005500016DA007CA0B90120CD4908743198407B9F
:10056000401CC1B231984173012032903198407BD8
:10057000022802DD002131984173319800F0C0FE5D
:100580003198407A70BBC248B0F91400002829DDC8
:10059000BF48B0F914103C2924DAB0F9160000283D
:1005A00020DDBB48B0F916103C291BDA007CC8B925
:1005B0000120B749087401213198017001202C9065
:1005C00010E0B348807C68B90020B14988700021F0
:1005D0003198417231988172AE4802F031FB0020AF
:1005E000AB490874329800287DD03298022827D170
:1005F000A9480FF0A1FA0020F0214FF4A0730246A1
:10060000CDE900100146A54808F0A4FC01204FF4F4
:10061000CC7102230A22CDE9001005219F4808F081
:10062000FFFF01204FF4CC7103230522CDE9001018
:1006300040F21D11994808F0F3FF97480FF0ACFA0B
:1006400054208DF8A80069208DF8A9006D208DF840
:10065000AA0065208DF8AB0072208DF8AC00202038
:100660008DF8AD003198407B401C02460DF1AE0183
:1006700005908B4802F012FB00208DF8AF006FF060
:100680007F41CDE90210874903C92AAB0A22CDE98F
:1006900000017421824802F05BFC00208249CDE910
:1006A0000210804903C981A34022CDE90001232122
:1006B0007B4802F04DFC00207B49CDE902107949CE
:1006C00003C97BA34222CDE900014FF4877174482E
:1006D00002F03EFC00207449CDE90210714903C9C3
:1006E00072A3722200E066E0CDE9000123216C488C
:1006F00002F02EFC00206C49CDE90210694903C9C3
:100700006BA37422CDE900014FF48771644802F0B5
:100710001FFC0121319880F84010319880F8411079
:10072000319880F842103198417B343050F82100E4
:1007300040F002013198427B343040F82210319869
:10074000417B1C3050F82100019011F03EFB9FEDE1
:10075000590B53EC102BCDE902019DED020B51EC2E
:10076000100B11F099FBCDE904019DED040B51EC48
:10077000100B11F0FDFA514908703198417B283077
:1007800050F82100019011F020FB9FED4D0B53EC30
:10079000102BCDE902019DED020B51EC100B11F075
:1007A0007BFBCDE904019DED040B51EC100B11F026
:1007B000DFFA45490870322030902D202F903F48B5
:1007C00000782E90329898B100204049CDE902106F
:1007D000344903C9CDE900012F9880B205903098C3
:1007E00080B23BA3049001462D48059A02F0B0FB6D
:1007F000319890F8410000286ED00021319880F89F
:1008000041103198417B343010F8210000F0010094
:1008100000902248DDE92E32309908F0F3F90020EB
:100820002D9007E000212AAA2D9811542D98401CE4
:10083000C0B22D902D980828F4DB20208DF8A80058
:100840003198417B1C3050F821000A2801DA012040
:1008500000E000202D903198417B1C3050F82100A1
:100860002AA905902D980844049001460C48059A41
:1008700002F014FA2D990844C0B22D903A222D9816
:10088000411CC9B22D912AA90A5426E0A4260208C7
:10089000602A00209C1300203C2A0020BC1300206A
:1008A0007C01002000010020808080002D000000DD
:1008B0002B00000066666666666611407A000020BE
:1008C000333333333333FB3F7B000020D0D0D000B1
:1008D000486F75727300000020E03198417B28302A
:1008E00050F821000A2806DA30222D98411CC9B29E
:1008F0002D912AA90A543198417B283050F82100C3
:100900002AA905902D98084404900146FE48059AAE
:1009100002F0C4F92D990844C0B22D905F202F90A9
:10092000FA4800782E90329898B10020F849CDE925
:100930000210F84903C9CDE900012F9880B2059053
:10094000309880B2F4A304900146EF48059A02F073
:10095000FFFA319890F84200002868D000213198C1
:1009600080F842103198417B343010F8210000F0BB
:1009700001000090EA48DDE92E32309908F042F992
:1009800000202D9007E000212AAA2D9811542D98BF
:10099000401CC0B22D902D980828F4DB20208DF843
:1009A000A8003198417B1C3050F821000A2801DA58
:1009B000012000E000202D903198417B1C3050F840
:1009C00021002AA905902D98084404900146CE489C
:1009D000059A02F063F92D990844C0B22D903A228D
:1009E0002D98411CC9B22D912AA90A543198417BF6
:1009F000283050F821000A2806DA30222D98411CB0
:100A0000C9B22D912AA90A543198417B283050F857
:100A100021002AA905902D98084404900146BA485F
:100A2000059A02F03BF92D990844C0B22D903198F7
:100A300090F84000002879D00021319880F84010CB
:100A400000202D9092E03198417B343010F8210045
:100A500000F00100F0B33198417B103050F82100D4
:100A60002D99084100F00100E0B100204DF6FF1182
:100A7000CDE90210AB4903C9CDE900012D9800EB87
:100A8000400024A9084405902D98C0EB001000EB0D
:100A9000400009300490D12201469B48059B02F09A
:100AA00057FA5FE00020A049CDE902109D4903C933
:100AB000CDE900012D9800EB400124A808440590E1
:100AC0002D98C0EB001000EB400009300490D122BB
:100AD000014600E004E08C48059B02F039FA41E051
:100AE0003198417B103050F821002D99084100F0D9
:100AF0000100E0B100208C49CDE90210894903C909
:100B0000CDE900012D9800EB400024A90844059090
:100B10002D98C0EB001000EB400009300490D1226A
:100B200001467948059B02F013FA1BE022E0002001
:100B30007E49CDE902107B4903C9CDE900012D981A
:100B400000EB400024A9084405902D98C0EB00104C
:100B500000EB400009300490D12201466A48059B11
:100B600002F0F6F92D98401CC0B22D902D98072860
:100B7000FFF669AFA0202F903198417B343050F8B8
:100B8000210003282DD100216FF07F40CDE9020123
:100B9000604903C9CDE900012F9880B205903098D3
:100BA0001E3080B262A3049001465748059A02F0B5
:100BB000CFF900204FF4CC71CDE900102F9880B20E
:100BC0000590309880B20523049001465448059A58
:100BD00008F026FD01213198427B343040F8221084
:100BE00032E03198417B343050F8210002282BD17B
:100BF00000214D48CDE90201464903C9CDE9000174
:100C00002F9880B2059030981E3080B248A304908F
:100C100001463D48059A02F09BF900214FF4CC7043
:100C2000CDE900012F9880B20590309880B204235E
:100C3000049001463A48059A08F0F2FC00213198E8
:100C4000427B343040F822103C48807C01285AD145
:100C50003A48B0F91400232811DB3848B0F91400E1
:100C600041280CDC3548B0F91600402807DB334832
:100C7000B0F916005E2802DC3048807818B12F48A1
:100C8000807806287AD106202C4988702C4801F0FB
:100C9000CFFFB8BB3198807A20B94FF4FA71284859
:100CA00001F0CEFF0121319881723198417B1C30D7
:100CB00050F82110491E3198427B1C3040F8221018
:100CC0003198417B1C3050F82100002806DA0021C1
:100CD0003198427B1C3040F822100CE03198417B67
:100CE0001C3050F82100172805DD17213198427B70
:100CF0001C3040F822103198417B1C3050F8210004
:100D000001901FE03AE0F3E27C0100207B0000202C
:100D1000D0D0D000000100204D696E75746573005D
:100D2000BC13002008010020C0C0C00080808000EB
:100D300054696D6572206F6E00000000602A00200B
:100D40009C13002011F041F89FEDFE0B53EC102B8B
:100D5000CDE902019DED020B51EC100B11F09CF856
:100D6000CDE904019DED040B51EC100B11F000F8DE
:100D7000F64908700121319880F84110F448B0F923
:100D80001400B0F5877F12DBF148B0F91400B0F51C
:100D9000967F0CDCEE48B0F91600422807DBEC48E1
:100DA000B0F91600602802DCE948807818B1E848FC
:100DB000807807285CD10721E5488170E54801F07B
:100DC00037FFE8BB3198807A20B94FF4FA71E148D7
:100DD00001F036FF0121319881723198417B1C303E
:100DE00050F82110491C3198427B1C3040F82210E9
:100DF0003198417B1C3050F82100002806DA002190
:100E00003198427B1C3040F822100CE03198417B35
:100E10001C3050F82100172805DD17213198427B3E
:100E20001C3040F822103198417B1C3050F82100D2
:100E3000019010F0CAFF9FEDC30B53EC102B00E0A4
:100E400016E0CDE902019DED020B51EC100B11F003
:100E500023F8CDE904019DED040B51EC100B10F0CB
:100E600087FFC1B2B94801700121319880F8411063
:100E7000B748B0F91400232811DBB548B0F91400C5
:100E800041280CDCB248B0F91600722807DBB048E4
:100E9000B0F91600902802DCAD48807818B1AC4853
:100EA000807808285BD10820A9498870A94801F0FA
:100EB000BFFEE8BB3198807A20B94FF4FA71A5489B
:100EC00001F0BEFE0121319881723198417B2830BA
:100ED00050F82110491E3198427B283040F82210EA
:100EE0003198417B283050F82100002806DA002193
:100EF0003198427B283040F822100CE03198417B39
:100F0000283050F821003B2805DD3B213198427BF9
:100F1000283040F822103198417B283050F82100C9
:100F2000019010F052FF9FED8C0B53EC102B00E062
:100F300015E0CDE902019DED020B51EC100B10F014
:100F4000ABFFCDE904019DED040B51EC100B10F04B
:100F50000FFF834908700121319880F842107C48C6
:100F6000B0F91400B0F5877F12DB7948B0F91400AE
:100F7000B0F5967F0CDC7648B0F91600742807DBD4
:100F80007348B0F91600922802DC7148807818B1D5
:100F90006F48807809285BD109206D4988706D48B9
:100FA00001F046FEE8BB3198807A20B94FF4FA711F
:100FB000684801F045FE0121319881723198417BEA
:100FC000283050F82110491C3198427B283040F8D5
:100FD00022103198417B283050F82100002806DA91
:100FE00000213198427B283040F822100CE03198E3
:100FF000417B283050F821003B2805DD3B2131980A
:10100000427B283040F822103198417B283050F83C
:101010002100019010F0D9FE9FED4F0B53EC102BE7
:1010200000E015E0CDE902019DED020B51EC100B43
:1010300010F032FFCDE904019DED040B51EC100BD3
:1010400010F096FE464908700121319880F8421050
:101050003F48B0F91400322811DB3D48B0F91400C4
:10106000FA280CDC3A48B0F916002D2807DB38487E
:10107000B0F916005F2802DC3548807818B1344892
:10108000807801284DD10120314988700846B0F997
:1010900014003238C117059000EB5170C11031981F
:1010A000427B1C3040F822103198417B1C3050F8B4
:1010B0002100002806DA00213198427B1C3040F8DC
:1010C00022100CE03198417B1C3050F82100172889
:1010D00005DD17213198427B1C3040F822103198F1
:1010E000417B1C3050F82100019010F06EFE9FED06
:1010F000150B53EC102BCDE902019DED020B51ECC9
:10110000100B10F0C9FECDE904019DED040B51EC6C
:10111000100B10F02DFE0D4908700121319880F858
:1011200041100B48B0F91400322822DB0848B0F90E
:101130001400FA281DDC0648B0F916005F2818DBF9
:1011400003480FE066666666666611407A00002016
:10115000602A00209C130020333333333333FB3FAA
:101160007B000020B0F91600912802DC62488078EC
:1011700018B161488078022860D102205E498870E9
:101180000846B0F914003238032190FBF1F1319890
:10119000427B283040F822103198417B283050F8AB
:1011A0002100052190FBF1F201FB12013198427BF5
:1011B000283050F82200411A3198427B283040F8FC
:1011C00022103198417B283050F82100002806DA9F
:1011D00000213198427B283040F822100CE03198F1
:1011E000417B283050F821003B2805DD3B21319818
:1011F000427B283040F822103198417B283050F84B
:101200002100019010F0E1FD1FED2D0B53EC102B90
:10121000CDE902019DED020B51EC100B10F03CFEEC
:10122000CDE904019DED040B51EC100B10F0A0FD75
:10123000324908700121319880F842102E48B0F9E7
:1012400014001E282DDB2C48B0F91400C82828DC17
:101250002948B0F916008C2823DB2748B0F916007E
:10126000B4281EDC24488078D8B90420224988702C
:101270003198417B343050F8210008B9012100E059
:101280000021891C3198427B343040F82210012122
:10129000319880F84010319880F84110319880F8EA
:1012A00042101548B0F91600BD2821DB124880789D
:1012B000F0B90520104988700121319880F840105C
:1012C0000D48B0F9140009382D2190FBF1F0C0B29F
:1012D0002D903198417B103050F8210001222D993A
:1012E0008A4080EA02013198427B103040F8221097
:1012F0002C9833B000BD0000602A00207B00002045
:101300001CB5044600203C21F0230246CDE9001024
:101310002821074807F01EFE0020C8214FF4A073C3
:101320002822CDE900100146014807F013FE1CBD3C
:10133000BC130020FF2180F8431001210170704789
:1013400030B587B0044665230E4A0621204600F0DA
:101350001FF80546FF200290039004900146059077
:101360000948C07E4006000ECDE900010648807E97
:1013700040F0FC0301222946044800F057FE07B064
:1013800030BD0000E4FF010004280020581E0020AA
:1013900030B50446C2F3100043EA002001F007050F
:1013A00040EA856030BD0000F0B52DED048B87B0BC
:1013B0000446B4F9001001F6AA2010F006FD41EC35
:1013C000190B9FED1F0B53EC102B10F065FD41EC3A
:1013D000180B10F0CDFC85B2B4F9061001F6AA2066
:1013E00010F0F3FC41EC190B9FED150B53EC102B97
:1013F00010F052FD41EC180B10F0BAFC86B26523D8
:10140000114A06212046FFF7C3FF0746FF2230128C
:10141000F1B2CDE90302281205920291E9B2CDE9B9
:1014200000100A48C07D00F0030040F0FC03842255
:101430003946074800F0FAFD07B0BDEC048BF0BD5B
:101440009A9999999999094065EF0100042800201B
:10145000581E002070B586B005461348046E6523FB
:10146000124A06212846FFF793FF06460E4890F8D9
:101470005E000D4991F85D100B4A92F85C200A4B12
:1014800093F85B30CDE90232CDE90410C4F3074094
:10149000C4F30721E3B28622CDE9001031460448A7
:1014A00000F0C4FD06B070BD9C2A002065EF01006D
:1014B000581E00202DE9F0412DED048B86B0064624
:1014C00001271C48407900F0010018B11A48B0F912
:1014D000085002E01848B0F9025005F6AA2010F0B2
:1014E00074FC41EC190B9FED150B53EC102B10F015
:1014F000D3FC41EC180B10F03BFC84B26523114A7D
:1015000006213046FFF744FF8046FF2002900390FB
:101510000490014605902012E3B23A46CDE900015D
:101520004146094800F082FD06B0BDEC048BBDE8E1
:10153000F0810000240100202C2800209A9999991C
:10154000999909409CFF0100581E00202DE9F04F99
:1015500087B082464FF0010B1E488179C01C405C69
:1015600008B1022400E0002403274FF001084FF0E7
:10157000FF09194890ED090ADFED180A30EE200A3C
:10158000DFED170A20EE200ABCEEC00A10EE100AAA
:1015900085B24FF6FF766523124A06215046FFF7C3
:1015A000F7FE0690FF223012F1B22B12CDE9023184
:1015B000CDE90402E8B2CDE9009044EA071040EA20
:1015C0008810C3B25A460848069900F02FFD07B0AC
:1015D000BDE8F08F2401002004280020008088430B
:1015E00000000042E2FF0100581E0020F0B587B065
:1015F00004460C488579022665230B4A06212046BD
:10160000FFF7C6FE0746FF20029003900490059066
:101610002B4601223946CDE90060044800F006FD62
:1016200007B0F0BD24010020FAFE0100581E002082
:101630002DE9F04F2DED048B89B004464FF0010BDE
:101640002B48807800F001012948407861F35F0061
:10165000089042F66055B4F9041001F6AA2010F083
:10166000B4FB41EC190B9FED230B53EC102B10F046
:1016700013FC41EC180B10F07BFB86B203271F48CC
:1016800090F8300000F001081C4890F8310000F09C
:101690000109032007901948407D0D2801D1012040
:1016A00000E0002082466523154A06212046FFF708
:1016B0006FFE069047EA880040EA0911079841EA60
:1016C0008010C0B23112F2B2CDE9040ACDE9022194
:1016D0002812E9B2CDE900105A460A48089B06993B
:1016E00000F0A4FC09B0BDEC048BBDE8F08F000055
:1016F000240100209A999999999909409C2A0020DF
:10170000F7FF0100581E002030B587B0044665235E
:101710000F4A06212046FFF73BFE0546FF200290B8
:1017200003900490014605900A48807D08B9012085
:1017300000E000203F2202EB8010FF230122CDE9D0
:1017400000012946044800F071FC07B030BD0000DC
:1017500099FE010004280020581E00202DE9F14FB9
:101760008AB03048007D38B92E48407D20B92D48D8
:10177000807D08B9012000E000200990294890F8F8
:10178000300030B9274890F8310010B92648C07EA3
:1017900008B1012000E00020089000262148007DCB
:1017A00028B92048407D10B91E48807D08B1012528
:1017B00000E000254FF0FF34FF274FF07F084FF087
:1017C00001091848407B08B11648447B4FF0FF0AD6
:1017D000D3466523154A06210A98FFF7D9FD0690DE
:1017E00048EAC910C0B247EA4411C9B2CDE904AB16
:1017F000CDE90210C4F3C700C4F3C721CDE900103E
:10180000DDE9081040EA810040EA061040EA851050
:10181000C2B20748DDE9061300F008FC0BB0BDE8D2
:10182000F08F00009C2A002004280020CAFE01003E
:10183000581E00202DE9F04F2DED028B87B0824617
:101840000C46022C3EDA4FF0010914B1012C0ED1E6
:1018500006E01F4890ED088A1E48857CC67C06E09D
:101860001B4890ED078A1B48057C467C00BF00BFE3
:101870009FED190A38EE000ADFED180A20EE200A63
:10188000BCEEC00A10EE100A1FFA80F84FF6FF7780
:101890006523134A06215046FFF77AFD8346381226
:1018A000F9B24FEA282208F0FF03CDE90056CDE94E
:1018B0000232CDE9041023464A465946094800F051
:1018C000B5FB00BF07B0BDEC028BBDE8F08F000098
:1018D00004280020240100200080884300000042EA
:1018E000F7FE0100581E002030B587B0044665237E
:1018F0000B4A06212046FFF74BFD0546FF200290CC
:10190000039004900590009001900648007E40F0FE
:10191000F00301222946044800F088FB07B030BDDF
:1019200097FE010004280020581E00202DE9F041F8
:1019300086B007463248007D20B93148407D08B95D
:10194000002416E02F48408BB0F5E15F10DA2E48F6
:1019500001F00EF92B49096A401A4FF47A71B0FB75
:10196000F1F02849498BC1EB0111C0EB810400E083
:10197000264C2748007888B1234801F0F9F821491E
:10198000C969401A4FF47A71B0FBF1F01D49098B17
:10199000C1EB0111C0EB810085B200E000251848C1
:1019A000007E05280DD1184801F0E2F81549896834
:1019B000401A4FF47A71B0FBF1F0C0F5167086B2A0
:1019C00000E000266523134A06213846FFF7E0FCB5
:1019D00080463012F1B22A12EBB2CDE90232CDE9E3
:1019E0000410C4F30740C4F30721E3B28522CDE914
:1019F00000104146084800F019FB06B0BDE8F08130
:101A0000042800209C2A00209C130020FEFFFF00D9
:101A10002401002065EF0100581E002070470000DF
:101A200010B5044602210248FEF72EFD10BD00004D
:101A30000002002070B5054600210348FEF724FD92
:101A40000446204670BD00000002002070470000E0
:101A500010B5044640F20260FCF7C4FD10230122D9
:101A600000215348FDF72AFC0120FCF789FB40F2D6
:101A70000960FCF7B7FD4FF4A060FCF7B3FD4D48DB
:101A8000FBF7ECF84B48FAF7DFFD00214A48FAF77C
:101A900027FE00214748FCF7DDFB0020FBF75EFD39
:101AA000012202214348FCF7A9FF0122110241480B
:101AB000FCF7A4FF00213F48FCF7B3FE03220121FD
:101AC0003C48FCF78BFE0523042200213948FCF733
